{
  "_format": "hh-sol-artifact-1",
  "contractName": "OmniLaunchFactory",
  "sourceName": "contracts/OmniLaunchFactory.sol",
  "abi": [
    {
      "inputs": [],
      "stateMutability": "nonpayable",
      "type": "constructor"
    },
    {
      "inputs": [
        {
          "internalType": "address",
          "name": "owner",
          "type": "address"
        },
        {
          "internalType": "address",
          "name": "target",
          "type": "address"
        },
        {
          "internalType": "uint256",
          "name": "value",
          "type": "uint256"
        }
      ],
      "name": "FailedToWithdrawEth",
      "type": "error"
    },
    {
      "anonymous": false,
      "inputs": [
        {
          "indexed": false,
          "internalType": "uint256",
          "name": "tokenID",
          "type": "uint256"
        },
        {
          "indexed": false,
          "internalType": "address",
          "name": "sender",
          "type": "address"
        },
        {
          "indexed": false,
          "internalType": "address",
          "name": "collectionAddress",
          "type": "address"
        },
        {
          "indexed": false,
          "internalType": "string",
          "name": "uri",
          "type": "string"
        },
        {
          "indexed": false,
          "internalType": "string",
          "name": "collectionName",
          "type": "string"
        },
        {
          "indexed": false,
          "internalType": "string",
          "name": "collectionSymbol",
          "type": "string"
        },
        {
          "indexed": false,
          "internalType": "string",
          "name": "collectionDescription",
          "type": "string"
        }
      ],
      "name": "DEPOSIT",
      "type": "event"
    },
    {
      "anonymous": false,
      "inputs": [
        {
          "indexed": false,
          "internalType": "string",
          "name": "name",
          "type": "string"
        },
        {
          "indexed": false,
          "internalType": "string",
          "name": "symbol",
          "type": "string"
        },
        {
          "indexed": false,
          "internalType": "string",
          "name": "baseURL",
          "type": "string"
        },
        {
          "indexed": false,
          "internalType": "string",
          "name": "baseExt",
          "type": "string"
        },
        {
          "indexed": false,
          "internalType": "address",
          "name": "owner",
          "type": "address"
        },
        {
          "indexed": false,
          "internalType": "address",
          "name": "srcCollectionAddress",
          "type": "address"
        }
      ],
      "name": "OMNIMINT",
      "type": "event"
    },
    {
      "anonymous": false,
      "inputs": [
        {
          "indexed": true,
          "internalType": "address",
          "name": "previousOwner",
          "type": "address"
        },
        {
          "indexed": true,
          "internalType": "address",
          "name": "newOwner",
          "type": "address"
        }
      ],
      "name": "OwnershipTransferred",
      "type": "event"
    },
    {
      "anonymous": false,
      "inputs": [
        {
          "indexed": false,
          "internalType": "uint256",
          "name": "action",
          "type": "uint256"
        },
        {
          "indexed": false,
          "internalType": "string",
          "name": "name",
          "type": "string"
        },
        {
          "indexed": false,
          "internalType": "string",
          "name": "symbol",
          "type": "string"
        },
        {
          "indexed": false,
          "internalType": "string",
          "name": "baseURL",
          "type": "string"
        },
        {
          "indexed": false,
          "internalType": "string",
          "name": "baseExt",
          "type": "string"
        },
        {
          "indexed": false,
          "internalType": "address",
          "name": "owner",
          "type": "address"
        },
        {
          "indexed": false,
          "internalType": "address",
          "name": "srcCollectionAddress",
          "type": "address"
        },
        {
          "indexed": false,
          "internalType": "uint256[]",
          "name": "chainIds",
          "type": "uint256[]"
        },
        {
          "indexed": false,
          "internalType": "uint256",
          "name": "initIdMul",
          "type": "uint256"
        }
      ],
      "name": "SRCMINT",
      "type": "event"
    },
    {
      "anonymous": false,
      "inputs": [
        {
          "indexed": false,
          "internalType": "uint256",
          "name": "action",
          "type": "uint256"
        },
        {
          "indexed": false,
          "internalType": "address",
          "name": "srcCollectionAddress",
          "type": "address"
        },
        {
          "indexed": false,
          "internalType": "address",
          "name": "minter",
          "type": "address"
        },
        {
          "indexed": false,
          "internalType": "uint256[]",
          "name": "chainIds",
          "type": "uint256[]"
        }
      ],
      "name": "SRCNFTMINT",
      "type": "event"
    },
    {
      "inputs": [
        {
          "internalType": "address",
          "name": "collectionAddress",
          "type": "address"
        },
        {
          "internalType": "uint256",
          "name": "_tokenID",
          "type": "uint256"
        },
        {
          "internalType": "string",
          "name": "uri",
          "type": "string"
        }
      ],
      "name": "deposit",
      "outputs": [
        {
          "internalType": "bool",
          "name": "",
          "type": "bool"
        }
      ],
      "stateMutability": "payable",
      "type": "function"
    },
    {
      "inputs": [
        {
          "internalType": "address",
          "name": "beneficiary",
          "type": "address"
        },
        {
          "internalType": "uint256",
          "name": "_amount",
          "type": "uint256"
        },
        {
          "internalType": "address",
          "name": "_projectAddress",
          "type": "address"
        }
      ],
      "name": "incentiviseProjects",
      "outputs": [],
      "stateMutability": "nonpayable",
      "type": "function"
    },
    {
      "inputs": [
        {
          "internalType": "address",
          "name": "",
          "type": "address"
        }
      ],
      "name": "omnichainaddressmapper",
      "outputs": [
        {
          "internalType": "address",
          "name": "",
          "type": "address"
        }
      ],
      "stateMutability": "view",
      "type": "function"
    },
    {
      "inputs": [
        {
          "internalType": "string",
          "name": "_name",
          "type": "string"
        },
        {
          "internalType": "string",
          "name": "_symbol",
          "type": "string"
        },
        {
          "internalType": "string",
          "name": "_baseuri",
          "type": "string"
        },
        {
          "internalType": "string",
          "name": "_baseExt",
          "type": "string"
        },
        {
          "internalType": "address",
          "name": "_owner",
          "type": "address"
        },
        {
          "internalType": "address",
          "name": "srcChainCollectionAddr",
          "type": "address"
        },
        {
          "internalType": "uint256",
          "name": "_initId",
          "type": "uint256"
        }
      ],
      "name": "omnicollmint",
      "outputs": [],
      "stateMutability": "nonpayable",
      "type": "function"
    },
    {
      "inputs": [
        {
          "internalType": "address",
          "name": "_srccollAddress",
          "type": "address"
        },
        {
          "internalType": "address",
          "name": "_to",
          "type": "address"
        }
      ],
      "name": "omninftmint",
      "outputs": [],
      "stateMutability": "nonpayable",
      "type": "function"
    },
    {
      "inputs": [],
      "name": "owner",
      "outputs": [
        {
          "internalType": "address",
          "name": "",
          "type": "address"
        }
      ],
      "stateMutability": "view",
      "type": "function"
    },
    {
      "inputs": [
        {
          "internalType": "address",
          "name": "",
          "type": "address"
        }
      ],
      "name": "projectInfo",
      "outputs": [
        {
          "internalType": "address",
          "name": "projectAddress",
          "type": "address"
        },
        {
          "internalType": "uint256",
          "name": "createdAt",
          "type": "uint256"
        }
      ],
      "stateMutability": "view",
      "type": "function"
    },
    {
      "inputs": [],
      "name": "renounceOwnership",
      "outputs": [],
      "stateMutability": "nonpayable",
      "type": "function"
    },
    {
      "inputs": [
        {
          "internalType": "string",
          "name": "_name",
          "type": "string"
        },
        {
          "internalType": "string",
          "name": "_symbol",
          "type": "string"
        },
        {
          "internalType": "string",
          "name": "_baseuri",
          "type": "string"
        },
        {
          "internalType": "string",
          "name": "_baseExt",
          "type": "string"
        },
        {
          "internalType": "address",
          "name": "_owner",
          "type": "address"
        },
        {
          "internalType": "uint256[]",
          "name": "_chainIds",
          "type": "uint256[]"
        },
        {
          "internalType": "uint256",
          "name": "_initIdMul",
          "type": "uint256"
        }
      ],
      "name": "srccollmint",
      "outputs": [],
      "stateMutability": "nonpayable",
      "type": "function"
    },
    {
      "inputs": [
        {
          "internalType": "address",
          "name": "_srccollAddress",
          "type": "address"
        },
        {
          "internalType": "address",
          "name": "_to",
          "type": "address"
        },
        {
          "internalType": "uint256[]",
          "name": "_chainIds",
          "type": "uint256[]"
        },
        {
          "internalType": "uint256",
          "name": "_price",
          "type": "uint256"
        }
      ],
      "name": "srcnftmint",
      "outputs": [],
      "stateMutability": "payable",
      "type": "function"
    },
    {
      "inputs": [
        {
          "internalType": "address",
          "name": "newOwner",
          "type": "address"
        }
      ],
      "name": "transferOwnership",
      "outputs": [],
      "stateMutability": "nonpayable",
      "type": "function"
    },
    {
      "inputs": [
        {
          "internalType": "address",
          "name": "",
          "type": "address"
        }
      ],
      "name": "whiteListedCollections",
      "outputs": [
        {
          "internalType": "uint256",
          "name": "endTmeForIncentives",
          "type": "uint256"
        },
        {
          "internalType": "uint256",
          "name": "supply",
          "type": "uint256"
        },
        {
          "internalType": "uint256",
          "name": "royalty",
          "type": "uint256"
        },
        {
          "internalType": "address",
          "name": "ownerAddressOnEth",
          "type": "address"
        },
        {
          "internalType": "string",
          "name": "name",
          "type": "string"
        },
        {
          "internalType": "string",
          "name": "symbol",
          "type": "string"
        },
        {
          "internalType": "string",
          "name": "description",
          "type": "string"
        }
      ],
      "stateMutability": "view",
      "type": "function"
    },
    {
      "inputs": [
        {
          "internalType": "address",
          "name": "_collectionAddress",
          "type": "address"
        },
        {
          "internalType": "uint256",
          "name": "_endTime",
          "type": "uint256"
        },
        {
          "internalType": "uint256",
          "name": "_supply",
          "type": "uint256"
        },
        {
          "internalType": "uint256",
          "name": "_royalty",
          "type": "uint256"
        },
        {
          "internalType": "string",
          "name": "_name",
          "type": "string"
        },
        {
          "internalType": "string",
          "name": "_symbol",
          "type": "string"
        },
        {
          "internalType": "address",
          "name": "_ownerAddresEth",
          "type": "address"
        },
        {
          "internalType": "string",
          "name": "_description",
          "type": "string"
        }
      ],
      "name": "whitelistCollectionForPorting",
      "outputs": [
        {
          "internalType": "bool",
          "name": "",
          "type": "bool"
        }
      ],
      "stateMutability": "nonpayable",
      "type": "function"
    },
    {
      "inputs": [
        {
          "internalType": "address",
          "name": "beneficiary",
          "type": "address"
        }
      ],
      "name": "withdraw",
      "outputs": [],
      "stateMutability": "nonpayable",
      "type": "function"
    },
    {
      "inputs": [
        {
          "internalType": "address",
          "name": "beneficiary",
          "type": "address"
        },
        {
          "internalType": "address",
          "name": "token",
          "type": "address"
        }
      ],
      "name": "withdrawToken",
      "outputs": [],
      "stateMutability": "nonpayable",
      "type": "function"
    },
    {
      "stateMutability": "payable",
      "type": "receive"
    }
  ],
  "bytecode": "0x6080604052600a60015534801561001557600080fd5b5061001f33610024565b610074565b600080546001600160a01b038381166001600160a01b0319831681178455604051919092169283917f8be0079c531659141344cd1fd0a4f28419497f9722a3daafe3b4186f6b6457e09190a35050565b61408f806100836000396000f3fe608060405260043610620000ff5760003560e01c80639055cd211162000095578063bfe07da61162000060578063bfe07da61462000307578063d6d17a39146200031e578063da7686de1462000358578063f2fde38b146200037d57600080fd5b80639055cd211462000231578063924e850314620002675780639cfa2749146200028c578063a3dd2b3e14620002a357600080fd5b806351cff8d911620000d657806351cff8d914620001af57806356ac988a14620001d4578063715018a614620001f95780638da5cb5b146200021157600080fd5b806310ac0c50146200010c5780633aeac4e1146200013357806340b58085146200015857600080fd5b366200010757005b600080fd5b3480156200011957600080fd5b50620001316200012b3660046200130f565b620003a2565b005b3480156200014057600080fd5b50620001316200015236600462001350565b620004d9565b3480156200016557600080fd5b50620001926200017736600462001388565b6002602052600090815260409020546001600160a01b031681565b6040516001600160a01b0390911681526020015b60405180910390f35b348015620001bc57600080fd5b5062000131620001ce36600462001388565b620005ee565b348015620001e157600080fd5b5062000131620001f336600462001350565b6200069f565b3480156200020657600080fd5b506200013162000713565b3480156200021e57600080fd5b506000546001600160a01b031662000192565b3480156200023e57600080fd5b5062000256620002503660046200146e565b6200074e565b6040519015158152602001620001a6565b3480156200027457600080fd5b506200013162000286366004620015cc565b6200088c565b620001316200029d366004620016ca565b620009cf565b348015620002b057600080fd5b50620002e7620002c236600462001388565b600460205260009081526040902080546001909101546001600160a01b039091169082565b604080516001600160a01b039093168352602083019190915201620001a6565b620002566200031836600462001738565b62000b75565b3480156200032b57600080fd5b50620003436200033d36600462001388565b62000ebd565b604051620001a69796959493929190620017dd565b3480156200036557600080fd5b5062000131620003773660046200184a565b620010b7565b3480156200038a57600080fd5b50620001316200039c36600462001388565b620011f2565b6000546001600160a01b03163314620003d85760405162461bcd60e51b8152600401620003cf9062001933565b60405180910390fd5b600180546001600160a01b038316600090815260046020526040902090910154429162000405916200197e565b10620004545760405162461bcd60e51b815260206004820152601960248201527f4e6f74206c6f636b656420696e20656e6f7567682074696d65000000000000006044820152606401620003cf565b6000836001600160a01b03168360405160006040518083038185875af1925050503d8060008114620004a3576040519150601f19603f3d011682016040523d82523d6000602084013e620004a8565b606091505b5050905080620004d357338484604051639d11f56360e01b8152600401620003cf939291906200199a565b50505050565b6000546001600160a01b03163314620005065760405162461bcd60e51b8152600401620003cf9062001933565b6040516370a0823160e01b81523060048201526000906001600160a01b038316906370a0823190602401602060405180830381865afa1580156200054e573d6000803e3d6000fd5b505050506040513d601f19601f82011682018060405250810190620005749190620019be565b60405163a9059cbb60e01b81526001600160a01b038581166004830152602482018390529192509083169063a9059cbb906044016020604051808303816000875af1158015620005c8573d6000803e3d6000fd5b505050506040513d601f19601f82011682018060405250810190620004d39190620019d8565b6000546001600160a01b031633146200061b5760405162461bcd60e51b8152600401620003cf9062001933565b60405147906000906001600160a01b0384169083908381818185875af1925050503d80600081146200066a576040519150601f19603f3d011682016040523d82523d6000602084013e6200066f565b606091505b50509050806200069a57338383604051639d11f56360e01b8152600401620003cf939291906200199a565b505050565b6001600160a01b03828116600090815260026020526040908190205490516340d097c360e01b815283831660048201529116906340d097c390602401600060405180830381600087803b158015620006f657600080fd5b505af11580156200070b573d6000803e3d6000fd5b505050505050565b6000546001600160a01b03163314620007405760405162461bcd60e51b8152600401620003cf9062001933565b6200074c600062001294565b565b600080546001600160a01b031633146200077c5760405162461bcd60e51b8152600401620003cf9062001933565b6040518060e0016040528089426200079591906200197e565b8152602001888152602001878152602001846001600160a01b0316815260200186815260200185815260200183815250600360008b6001600160a01b03166001600160a01b0316815260200190815260200160002060008201518160000155602082015181600101556040820151816002015560608201518160030160006101000a8154816001600160a01b0302191690836001600160a01b0316021790555060808201518160040190816200084c919062001a82565b5060a0820151600582019062000863908262001a82565b5060c082015160068201906200087a908262001a82565b5060019b9a5050505050505050505050565b6000878787876000604051620008a290620012e4565b620008b295949392919062001b4f565b604051809103906000f080158015620008cf573d6000803e3d6000fd5b5060405163f2fde38b60e01b81526001600160a01b0386811660048301529192509082169063f2fde38b90602401600060405180830381600087803b1580156200091857600080fd5b505af11580156200092d573d6000803e3d6000fd5b50506040805180820182526001600160a01b03858116808352426020808501918252600092835260049052848220935184546001600160a01b0319169316929092178355905160019092019190915590517f2e0cbbd1590d16efb31ee9b0cdaa8d47d83e3ae9a2c5331fad81db9d85e350539350620009bd92508b908b908b908b908b9089908c908c9062001bf4565b60405180910390a15050505050505050565b8151620009dd908262001c97565b34101562000a2e5760405162461bcd60e51b815260206004820152601860248201527f4e6f7420656e6f75676820616d6f756e7420746f2070617900000000000000006044820152606401620003cf565b6040516340d097c360e01b81526001600160a01b0384811660048301528516906340d097c390602401600060405180830381600087803b15801562000a7257600080fd5b505af115801562000a87573d6000803e3d6000fd5b50505050600062000aa06000546001600160a01b031690565b6001600160a01b03163460405160006040518083038185875af1925050503d806000811462000aec576040519150601f19603f3d011682016040523d82523d6000602084013e62000af1565b606091505b505090508062000b2e573362000b0f6000546001600160a01b031690565b34604051639d11f56360e01b8152600401620003cf939291906200199a565b7f9af24d2b124f59f4bbc21a6359a00e96f92210cc654527a2301545c4e4920fbe600186868660405162000b66949392919062001cb1565b60405180910390a15050505050565b60006001600160a01b03841662000bc55760405162461bcd60e51b8152602060048201526013602482015272043616e6e6f742062652061646472657373203606c1b6044820152606401620003cf565b6001600160a01b038085166000908152600360208181526040808420815160e0810183528154815260018201549381019390935260028101549183019190915291820154909316606084015260048101805492939260808401919062000c2b90620019fc565b80601f016020809104026020016040519081016040528092919081815260200182805462000c5990620019fc565b801562000caa5780601f1062000c7e5761010080835404028352916020019162000caa565b820191906000526020600020905b81548152906001019060200180831162000c8c57829003601f168201915b5050505050815260200160058201805462000cc590620019fc565b80601f016020809104026020016040519081016040528092919081815260200182805462000cf390620019fc565b801562000d445780601f1062000d185761010080835404028352916020019162000d44565b820191906000526020600020905b81548152906001019060200180831162000d2657829003601f168201915b5050505050815260200160068201805462000d5f90620019fc565b80601f016020809104026020016040519081016040528092919081815260200182805462000d8d90620019fc565b801562000dde5780601f1062000db25761010080835404028352916020019162000dde565b820191906000526020600020905b81548152906001019060200180831162000dc057829003601f168201915b5050505050815250509050846001600160a01b03166323b872dd62000e003390565b6000546001600160a01b0316876040518463ffffffff1660e01b815260040162000e2d939291906200199a565b600060405180830381600087803b15801562000e4857600080fd5b505af115801562000e5d573d6000803e3d6000fd5b505050507fbaf777510567ce135e213268b279f4a1a07a16326997d1e93f14f4edc1d690fd8433878685608001518660a001518760c0015160405162000eaa979695949392919062001cef565b60405180910390a1506001949350505050565b6003602081905260009182526040909120805460018201546002830154938301546004840180549395929492936001600160a01b03909216929162000f0290620019fc565b80601f016020809104026020016040519081016040528092919081815260200182805462000f3090620019fc565b801562000f815780601f1062000f555761010080835404028352916020019162000f81565b820191906000526020600020905b81548152906001019060200180831162000f6357829003601f168201915b50505050509080600501805462000f9890620019fc565b80601f016020809104026020016040519081016040528092919081815260200182805462000fc690620019fc565b8015620010175780601f1062000feb5761010080835404028352916020019162001017565b820191906000526020600020905b81548152906001019060200180831162000ff957829003601f168201915b5050505050908060060180546200102e90620019fc565b80601f01602080910402602001604051908101604052809291908181526020018280546200105c90620019fc565b8015620010ad5780601f106200108157610100808354040283529160200191620010ad565b820191906000526020600020905b8154815290600101906020018083116200108f57829003601f168201915b5050505050905087565b6000546001600160a01b03163314620010e45760405162461bcd60e51b8152600401620003cf9062001933565b60008787878785604051620010f990620012e4565b6200110995949392919062001b4f565b604051809103906000f08015801562001126573d6000803e3d6000fd5b5060405163f2fde38b60e01b81526001600160a01b0386811660048301529192509082169063f2fde38b90602401600060405180830381600087803b1580156200116f57600080fd5b505af115801562001184573d6000803e3d6000fd5b505050506001600160a01b038381166000908152600260205260409081902080546001600160a01b03191692841692909217909155517e0583c27c2748b204252238a1e3cbc2636fd41bb2a15e9b745c2f0ce11184bd90620009bd908a908a908a908a908a90889062001d4d565b6000546001600160a01b031633146200121f5760405162461bcd60e51b8152600401620003cf9062001933565b6001600160a01b038116620012865760405162461bcd60e51b815260206004820152602660248201527f4f776e61626c653a206e6577206f776e657220697320746865207a65726f206160448201526564647265737360d01b6064820152608401620003cf565b620012918162001294565b50565b600080546001600160a01b038381166001600160a01b0319831681178455604051919092169283917f8be0079c531659141344cd1fd0a4f28419497f9722a3daafe3b4186f6b6457e09190a35050565b6122908062001dca83390190565b80356001600160a01b03811681146200130a57600080fd5b919050565b6000806000606084860312156200132557600080fd5b6200133084620012f2565b9250602084013591506200134760408501620012f2565b90509250925092565b600080604083850312156200136457600080fd5b6200136f83620012f2565b91506200137f60208401620012f2565b90509250929050565b6000602082840312156200139b57600080fd5b620013a682620012f2565b9392505050565b634e487b7160e01b600052604160045260246000fd5b604051601f8201601f1916810167ffffffffffffffff81118282101715620013ef57620013ef620013ad565b604052919050565b600082601f8301126200140957600080fd5b813567ffffffffffffffff811115620014265762001426620013ad565b6200143b601f8201601f1916602001620013c3565b8181528460208386010111156200145157600080fd5b816020850160208301376000918101602001919091529392505050565b600080600080600080600080610100898b0312156200148c57600080fd5b6200149789620012f2565b9750602089013596506040890135955060608901359450608089013567ffffffffffffffff80821115620014ca57600080fd5b620014d88c838d01620013f7565b955060a08b0135915080821115620014ef57600080fd5b620014fd8c838d01620013f7565b94506200150d60c08c01620012f2565b935060e08b01359150808211156200152457600080fd5b50620015338b828c01620013f7565b9150509295985092959890939650565b600082601f8301126200155557600080fd5b8135602067ffffffffffffffff821115620015745762001574620013ad565b8160051b62001585828201620013c3565b9283528481018201928281019087851115620015a057600080fd5b83870192505b84831015620015c157823582529183019190830190620015a6565b979650505050505050565b600080600080600080600060e0888a031215620015e857600080fd5b873567ffffffffffffffff808211156200160157600080fd5b6200160f8b838c01620013f7565b985060208a01359150808211156200162657600080fd5b620016348b838c01620013f7565b975060408a01359150808211156200164b57600080fd5b620016598b838c01620013f7565b965060608a01359150808211156200167057600080fd5b6200167e8b838c01620013f7565b95506200168e60808b01620012f2565b945060a08a0135915080821115620016a557600080fd5b50620016b48a828b0162001543565b92505060c0880135905092959891949750929550565b60008060008060808587031215620016e157600080fd5b620016ec85620012f2565b9350620016fc60208601620012f2565b9250604085013567ffffffffffffffff8111156200171957600080fd5b620017278782880162001543565b949793965093946060013593505050565b6000806000606084860312156200174e57600080fd5b6200175984620012f2565b925060208401359150604084013567ffffffffffffffff8111156200177d57600080fd5b6200178b86828701620013f7565b9150509250925092565b6000815180845260005b81811015620017bd576020818501810151868301820152016200179f565b506000602082860101526020601f19601f83011685010191505092915050565b87815286602082015285604082015260018060a01b038516606082015260e0608082015260006200181260e083018662001795565b82810360a084015262001826818662001795565b905082810360c08401526200183c818562001795565b9a9950505050505050505050565b600080600080600080600060e0888a0312156200186657600080fd5b873567ffffffffffffffff808211156200187f57600080fd5b6200188d8b838c01620013f7565b985060208a0135915080821115620018a457600080fd5b620018b28b838c01620013f7565b975060408a0135915080821115620018c957600080fd5b620018d78b838c01620013f7565b965060608a0135915080821115620018ee57600080fd5b50620018fd8a828b01620013f7565b9450506200190e60808901620012f2565b92506200191e60a08901620012f2565b915060c0880135905092959891949750929550565b6020808252818101527f4f776e61626c653a2063616c6c6572206973206e6f7420746865206f776e6572604082015260600190565b634e487b7160e01b600052601160045260246000fd5b8082018082111562001994576200199462001968565b92915050565b6001600160a01b039384168152919092166020820152604081019190915260600190565b600060208284031215620019d157600080fd5b5051919050565b600060208284031215620019eb57600080fd5b81518015158114620013a657600080fd5b600181811c9082168062001a1157607f821691505b60208210810362001a3257634e487b7160e01b600052602260045260246000fd5b50919050565b601f8211156200069a57600081815260208120601f850160051c8101602086101562001a615750805b601f850160051c820191505b818110156200070b5782815560010162001a6d565b815167ffffffffffffffff81111562001a9f5762001a9f620013ad565b62001ab78162001ab08454620019fc565b8462001a38565b602080601f83116001811462001aef576000841562001ad65750858301515b600019600386901b1c1916600185901b1785556200070b565b600085815260208120601f198616915b8281101562001b205788860151825594840194600190910190840162001aff565b508582101562001b3f5787850151600019600388901b60f8161c191681555b5050505050600190811b01905550565b60a08152600062001b6460a083018862001795565b828103602084015262001b78818862001795565b9050828103604084015262001b8e818762001795565b9050828103606084015262001ba4818662001795565b9150508260808301529695505050505050565b600081518084526020808501945080840160005b8381101562001be95781518752958201959082019060010162001bcb565b509495945050505050565b60006101208b835280602084015262001c108184018c62001795565b9050828103604084015262001c26818b62001795565b9050828103606084015262001c3c818a62001795565b9050828103608084015262001c52818962001795565b6001600160a01b0388811660a0860152871660c085015283810360e0850152905062001c7f818662001bb7565b915050826101008301529a9950505050505050505050565b808202811582820484141762001994576200199462001968565b8481526001600160a01b0384811660208301528316604082015260806060820181905260009062001ce59083018462001bb7565b9695505050505050565b8781526001600160a01b0387811660208301528616604082015260e06060820181905260009062001d239083018762001795565b828103608084015262001d37818762001795565b905082810360a084015262001826818662001795565b60c08152600062001d6260c083018962001795565b828103602084015262001d76818962001795565b9050828103604084015262001d8c818862001795565b9050828103606084015262001da2818762001795565b6001600160a01b0395861660808501529390941660a090920191909152509594505050505056fe60806040523480156200001157600080fd5b5060405162002290380380620022908339810160408190526200003491620001b7565b8484600062000044838262000309565b50600162000053828262000309565b505050620000706200006a6200009c60201b60201c565b620000a0565b600d6200007e848262000309565b50600e6200008d838262000309565b50600c5550620003d592505050565b3390565b600b80546001600160a01b038381166001600160a01b0319831681179093556040519116919082907f8be0079c531659141344cd1fd0a4f28419497f9722a3daafe3b4186f6b6457e090600090a35050565b634e487b7160e01b600052604160045260246000fd5b600082601f8301126200011a57600080fd5b81516001600160401b0380821115620001375762000137620000f2565b604051601f8301601f19908116603f01168101908282118183101715620001625762000162620000f2565b816040528381526020925086838588010111156200017f57600080fd5b600091505b83821015620001a3578582018301518183018401529082019062000184565b600093810190920192909252949350505050565b600080600080600060a08688031215620001d057600080fd5b85516001600160401b0380821115620001e857600080fd5b620001f689838a0162000108565b965060208801519150808211156200020d57600080fd5b6200021b89838a0162000108565b955060408801519150808211156200023257600080fd5b6200024089838a0162000108565b945060608801519150808211156200025757600080fd5b50620002668882890162000108565b925050608086015190509295509295909350565b600181811c908216806200028f57607f821691505b602082108103620002b057634e487b7160e01b600052602260045260246000fd5b50919050565b601f8211156200030457600081815260208120601f850160051c81016020861015620002df5750805b601f850160051c820191505b818110156200030057828155600101620002eb565b5050505b505050565b81516001600160401b03811115620003255762000325620000f2565b6200033d816200033684546200027a565b84620002b6565b602080601f8311600181146200037557600084156200035c5750858301515b600019600386901b1c1916600185901b17855562000300565b600085815260208120601f198616915b82811015620003a65788860151825594840194600190910190840162000385565b5085821015620003c55787850151600019600388901b60f8161c191681555b5050505050600190811b01905550565b611eab80620003e56000396000f3fe608060405234801561001057600080fd5b50600436106101425760003560e01c80636c0360eb116100b8578063a22cb4651161007c578063a22cb46514610284578063b88d4fde14610297578063c6682862146102aa578063c87b56dd146102b2578063e985e9c5146102c5578063f2fde38b1461030157600080fd5b80636c0360eb1461024857806370a0823114610250578063715018a6146102635780638da5cb5b1461026b57806395d89b411461027c57600080fd5b806323b872dd1161010a57806323b872dd146101d65780632f745c59146101e957806340d097c3146101fc57806342842e0e1461020f5780634f6ccce7146102225780636352211e1461023557600080fd5b806301ffc9a71461014757806306fdde031461016f578063081812fc14610184578063095ea7b3146101af57806318160ddd146101c4575b600080fd5b61015a61015536600461181e565b610314565b60405190151581526020015b60405180910390f35b610177610325565b604051610166919061188b565b61019761019236600461189e565b6103b7565b6040516001600160a01b039091168152602001610166565b6101c26101bd3660046118d3565b610444565b005b6009545b604051908152602001610166565b6101c26101e43660046118fd565b610559565b6101c86101f73660046118d3565b61058a565b6101c261020a366004611939565b610620565b6101c261021d3660046118fd565b6106c2565b6101c861023036600461189e565b6106dd565b61019761024336600461189e565b610770565b6101776107e7565b6101c861025e366004611939565b610875565b6101c26108fc565b600b546001600160a01b0316610197565b610177610962565b6101c2610292366004611954565b610971565b6101c26102a53660046119a6565b610a35565b610177610a67565b6101776102c036600461189e565b610a74565b61015a6102d3366004611a82565b6001600160a01b03918216600090815260056020908152604080832093909416825291909152205460ff1690565b6101c261030f366004611939565b610a7f565b600061031f82610b4a565b92915050565b60606000805461033490611ab5565b80601f016020809104026020016040519081016040528092919081815260200182805461036090611ab5565b80156103ad5780601f10610382576101008083540402835291602001916103ad565b820191906000526020600020905b81548152906001019060200180831161039057829003601f168201915b5050505050905090565b60006103c282610b6f565b6104285760405162461bcd60e51b815260206004820152602c60248201527f4552433732313a20617070726f76656420717565727920666f72206e6f6e657860448201526b34b9ba32b73a103a37b5b2b760a11b60648201526084015b60405180910390fd5b506000908152600460205260409020546001600160a01b031690565b600061044f82610770565b9050806001600160a01b0316836001600160a01b0316036104bc5760405162461bcd60e51b815260206004820152602160248201527f4552433732313a20617070726f76616c20746f2063757272656e74206f776e656044820152603960f91b606482015260840161041f565b336001600160a01b03821614806104d857506104d881336102d3565b61054a5760405162461bcd60e51b815260206004820152603860248201527f4552433732313a20617070726f76652063616c6c6572206973206e6f74206f7760448201527f6e6572206e6f7220617070726f76656420666f7220616c6c0000000000000000606482015260840161041f565b6105548383610b8c565b505050565b6105633382610bfa565b61057f5760405162461bcd60e51b815260040161041f90611aef565b610554838383610ce4565b600061059583610875565b82106105f75760405162461bcd60e51b815260206004820152602b60248201527f455243373231456e756d657261626c653a206f776e657220696e646578206f7560448201526a74206f6620626f756e647360a81b606482015260840161041f565b506001600160a01b03919091166000908152600760209081526040808320938352929052205490565b6000600c5460016106319190611b56565b600c8054919250600061064383611b69565b91905055506000610652610e8f565b9050600080825111610673576040518060200160405280600081525061069f565b61067c83610e9e565b600e60405160200161068f929190611b82565b6040516020818303038152906040525b90506106ab8484610f9f565b8051156106bc576106bc8382610fbd565b50505050565b61055483838360405180602001604052806000815250610a35565b60006106e860095490565b821061074b5760405162461bcd60e51b815260206004820152602c60248201527f455243373231456e756d657261626c653a20676c6f62616c20696e646578206f60448201526b7574206f6620626f756e647360a01b606482015260840161041f565b6009828154811061075e5761075e611c0f565b90600052602060002001549050919050565b6000818152600260205260408120546001600160a01b03168061031f5760405162461bcd60e51b815260206004820152602960248201527f4552433732313a206f776e657220717565727920666f72206e6f6e657869737460448201526832b73a103a37b5b2b760b91b606482015260840161041f565b600d80546107f490611ab5565b80601f016020809104026020016040519081016040528092919081815260200182805461082090611ab5565b801561086d5780601f106108425761010080835404028352916020019161086d565b820191906000526020600020905b81548152906001019060200180831161085057829003601f168201915b505050505081565b60006001600160a01b0382166108e05760405162461bcd60e51b815260206004820152602a60248201527f4552433732313a2062616c616e636520717565727920666f7220746865207a65604482015269726f206164647265737360b01b606482015260840161041f565b506001600160a01b031660009081526003602052604090205490565b600b546001600160a01b031633146109565760405162461bcd60e51b815260206004820181905260248201527f4f776e61626c653a2063616c6c6572206973206e6f7420746865206f776e6572604482015260640161041f565b6109606000611041565b565b60606001805461033490611ab5565b336001600160a01b038316036109c95760405162461bcd60e51b815260206004820152601960248201527f4552433732313a20617070726f766520746f2063616c6c657200000000000000604482015260640161041f565b3360008181526005602090815260408083206001600160a01b03871680855290835292819020805460ff191686151590811790915590519081529192917f17307eab39ab6107e8899845ad3d59bd9653f200f220920489ca2b5937696c31910160405180910390a35050565b610a3f3383610bfa565b610a5b5760405162461bcd60e51b815260040161041f90611aef565b6106bc84848484611093565b600e80546107f490611ab5565b606061031f826110c6565b600b546001600160a01b03163314610ad95760405162461bcd60e51b815260206004820181905260248201527f4f776e61626c653a2063616c6c6572206973206e6f7420746865206f776e6572604482015260640161041f565b6001600160a01b038116610b3e5760405162461bcd60e51b815260206004820152602660248201527f4f776e61626c653a206e6577206f776e657220697320746865207a65726f206160448201526564647265737360d01b606482015260840161041f565b610b4781611041565b50565b60006001600160e01b0319821663780e9d6360e01b148061031f575061031f82611227565b6000908152600260205260409020546001600160a01b0316151590565b600081815260046020526040902080546001600160a01b0319166001600160a01b0384169081179091558190610bc182610770565b6001600160a01b03167f8c5be1e5ebec7d5bd14f71427d1e84f3dd0314c0f7b2291e5b200ac8c7c3b92560405160405180910390a45050565b6000610c0582610b6f565b610c665760405162461bcd60e51b815260206004820152602c60248201527f4552433732313a206f70657261746f7220717565727920666f72206e6f6e657860448201526b34b9ba32b73a103a37b5b2b760a11b606482015260840161041f565b6000610c7183610770565b9050806001600160a01b0316846001600160a01b03161480610cac5750836001600160a01b0316610ca1846103b7565b6001600160a01b0316145b80610cdc57506001600160a01b0380821660009081526005602090815260408083209388168352929052205460ff165b949350505050565b826001600160a01b0316610cf782610770565b6001600160a01b031614610d5f5760405162461bcd60e51b815260206004820152602960248201527f4552433732313a207472616e73666572206f6620746f6b656e2074686174206960448201526839903737ba1037bbb760b91b606482015260840161041f565b6001600160a01b038216610dc15760405162461bcd60e51b8152602060048201526024808201527f4552433732313a207472616e7366657220746f20746865207a65726f206164646044820152637265737360e01b606482015260840161041f565b610dcc838383611277565b610dd7600082610b8c565b6001600160a01b0383166000908152600360205260408120805460019290610e00908490611c25565b90915550506001600160a01b0382166000908152600360205260408120805460019290610e2e908490611b56565b909155505060008181526002602052604080822080546001600160a01b0319166001600160a01b0386811691821790925591518493918716917fddf252ad1be2c89b69c2b068fc378daa952ba7f163c4a11628f55a4df523b3ef91a4505050565b6060600d805461033490611ab5565b606081600003610ec55750506040805180820190915260018152600360fc1b602082015290565b8160005b8115610eef5780610ed981611b69565b9150610ee89050600a83611c4e565b9150610ec9565b60008167ffffffffffffffff811115610f0a57610f0a611990565b6040519080825280601f01601f191660200182016040528015610f34576020820181803683370190505b5090505b8415610cdc57610f49600183611c25565b9150610f56600a86611c62565b610f61906030611b56565b60f81b818381518110610f7657610f76611c0f565b60200101906001600160f81b031916908160001a905350610f98600a86611c4e565b9450610f38565b610fb9828260405180602001604052806000815250611282565b5050565b610fc682610b6f565b6110295760405162461bcd60e51b815260206004820152602e60248201527f45524337323155524953746f726167653a2055524920736574206f66206e6f6e60448201526d32bc34b9ba32b73a103a37b5b2b760911b606482015260840161041f565b60008281526006602052604090206105548282611cc4565b600b80546001600160a01b038381166001600160a01b0319831681179093556040519116919082907f8be0079c531659141344cd1fd0a4f28419497f9722a3daafe3b4186f6b6457e090600090a35050565b61109e848484610ce4565b6110aa848484846112b5565b6106bc5760405162461bcd60e51b815260040161041f90611d84565b60606110d182610b6f565b6111375760405162461bcd60e51b815260206004820152603160248201527f45524337323155524953746f726167653a2055524920717565727920666f72206044820152703737b732bc34b9ba32b73a103a37b5b2b760791b606482015260840161041f565b6000828152600660205260408120805461115090611ab5565b80601f016020809104026020016040519081016040528092919081815260200182805461117c90611ab5565b80156111c95780601f1061119e576101008083540402835291602001916111c9565b820191906000526020600020905b8154815290600101906020018083116111ac57829003601f168201915b5050505050905060006111da610e8f565b905080516000036111ec575092915050565b81511561121e578082604051602001611206929190611dd6565b60405160208183030381529060405292505050919050565b610cdc846113b6565b60006001600160e01b031982166380ac58cd60e01b148061125857506001600160e01b03198216635b5e139f60e01b145b8061031f57506301ffc9a760e01b6001600160e01b031983161461031f565b610554838383611481565b61128c8383611539565b61129960008484846112b5565b6105545760405162461bcd60e51b815260040161041f90611d84565b60006001600160a01b0384163b156113ab57604051630a85bd0160e11b81526001600160a01b0385169063150b7a02906112f9903390899088908890600401611e05565b6020604051808303816000875af1925050508015611334575060408051601f3d908101601f1916820190925261133191810190611e42565b60015b611391573d808015611362576040519150601f19603f3d011682016040523d82523d6000602084013e611367565b606091505b5080516000036113895760405162461bcd60e51b815260040161041f90611d84565b805181602001fd5b6001600160e01b031916630a85bd0160e11b149050610cdc565b506001949350505050565b60606113c182610b6f565b6114255760405162461bcd60e51b815260206004820152602f60248201527f4552433732314d657461646174613a2055524920717565727920666f72206e6f60448201526e3732bc34b9ba32b73a103a37b5b2b760891b606482015260840161041f565b600061142f610e8f565b9050600081511161144f576040518060200160405280600081525061147a565b8061145984610e9e565b60405160200161146a929190611dd6565b6040516020818303038152906040525b9392505050565b6001600160a01b0383166114dc576114d781600980546000838152600a60205260408120829055600182018355919091527f6e1540171b6c0c960b71a7020d9f60077f6af931a8bbf590da0223dacf75c7af0155565b6114ff565b816001600160a01b0316836001600160a01b0316146114ff576114ff8382611678565b6001600160a01b0382166115165761055481611715565b826001600160a01b0316826001600160a01b0316146105545761055482826117c4565b6001600160a01b03821661158f5760405162461bcd60e51b815260206004820181905260248201527f4552433732313a206d696e7420746f20746865207a65726f2061646472657373604482015260640161041f565b61159881610b6f565b156115e55760405162461bcd60e51b815260206004820152601c60248201527f4552433732313a20746f6b656e20616c7265616479206d696e74656400000000604482015260640161041f565b6115f160008383611277565b6001600160a01b038216600090815260036020526040812080546001929061161a908490611b56565b909155505060008181526002602052604080822080546001600160a01b0319166001600160a01b03861690811790915590518392907fddf252ad1be2c89b69c2b068fc378daa952ba7f163c4a11628f55a4df523b3ef908290a45050565b6000600161168584610875565b61168f9190611c25565b6000838152600860205260409020549091508082146116e2576001600160a01b03841660009081526007602090815260408083208584528252808320548484528184208190558352600890915290208190555b5060009182526008602090815260408084208490556001600160a01b039094168352600781528383209183525290812055565b60095460009061172790600190611c25565b6000838152600a60205260408120546009805493945090928490811061174f5761174f611c0f565b90600052602060002001549050806009838154811061177057611770611c0f565b6000918252602080832090910192909255828152600a909152604080822084905585825281205560098054806117a8576117a8611e5f565b6001900381819060005260206000200160009055905550505050565b60006117cf83610875565b6001600160a01b039093166000908152600760209081526040808320868452825280832085905593825260089052919091209190915550565b6001600160e01b031981168114610b4757600080fd5b60006020828403121561183057600080fd5b813561147a81611808565b60005b8381101561185657818101518382015260200161183e565b50506000910152565b6000815180845261187781602086016020860161183b565b601f01601f19169290920160200192915050565b60208152600061147a602083018461185f565b6000602082840312156118b057600080fd5b5035919050565b80356001600160a01b03811681146118ce57600080fd5b919050565b600080604083850312156118e657600080fd5b6118ef836118b7565b946020939093013593505050565b60008060006060848603121561191257600080fd5b61191b846118b7565b9250611929602085016118b7565b9150604084013590509250925092565b60006020828403121561194b57600080fd5b61147a826118b7565b6000806040838503121561196757600080fd5b611970836118b7565b91506020830135801515811461198557600080fd5b809150509250929050565b634e487b7160e01b600052604160045260246000fd5b600080600080608085870312156119bc57600080fd5b6119c5856118b7565b93506119d3602086016118b7565b925060408501359150606085013567ffffffffffffffff808211156119f757600080fd5b818701915087601f830112611a0b57600080fd5b813581811115611a1d57611a1d611990565b604051601f8201601f19908116603f01168101908382118183101715611a4557611a45611990565b816040528281528a6020848701011115611a5e57600080fd5b82602086016020830137600060208483010152809550505050505092959194509250565b60008060408385031215611a9557600080fd5b611a9e836118b7565b9150611aac602084016118b7565b90509250929050565b600181811c90821680611ac957607f821691505b602082108103611ae957634e487b7160e01b600052602260045260246000fd5b50919050565b60208082526031908201527f4552433732313a207472616e736665722063616c6c6572206973206e6f74206f6040820152701ddb995c881b9bdc88185c1c1c9bdd9959607a1b606082015260800190565b634e487b7160e01b600052601160045260246000fd5b8082018082111561031f5761031f611b40565b600060018201611b7b57611b7b611b40565b5060010190565b600083516020611b95828583890161183b565b818401915060008554611ba781611ab5565b60018281168015611bbf5760018114611bd457611c00565b60ff1984168752821515830287019450611c00565b896000528560002060005b84811015611bf857815489820152908301908701611bdf565b505082870194505b50929998505050505050505050565b634e487b7160e01b600052603260045260246000fd5b8181038181111561031f5761031f611b40565b634e487b7160e01b600052601260045260246000fd5b600082611c5d57611c5d611c38565b500490565b600082611c7157611c71611c38565b500690565b601f82111561055457600081815260208120601f850160051c81016020861015611c9d5750805b601f850160051c820191505b81811015611cbc57828155600101611ca9565b505050505050565b815167ffffffffffffffff811115611cde57611cde611990565b611cf281611cec8454611ab5565b84611c76565b602080601f831160018114611d275760008415611d0f5750858301515b600019600386901b1c1916600185901b178555611cbc565b600085815260208120601f198616915b82811015611d5657888601518255948401946001909101908401611d37565b5085821015611d745787850151600019600388901b60f8161c191681555b5050505050600190811b01905550565b60208082526032908201527f4552433732313a207472616e7366657220746f206e6f6e20455243373231526560408201527131b2b4bb32b91034b6b83632b6b2b73a32b960711b606082015260800190565b60008351611de881846020880161183b565b835190830190611dfc81836020880161183b565b01949350505050565b6001600160a01b0385811682528416602082015260408101839052608060608201819052600090611e389083018461185f565b9695505050505050565b600060208284031215611e5457600080fd5b815161147a81611808565b634e487b7160e01b600052603160045260246000fdfea2646970667358221220eac85aad575d81c8efa16222c7449b28ee0e8a70c81cf97e85a3e187e98fba1e64736f6c63430008130033a2646970667358221220b35bc14bf34cb2a375222ac6b470654465e3bb705e2afd4357f04d7358b7d0ac64736f6c63430008130033",
  "linkReferences": {},
  "deployedLinkReferences": {}
}